{
  "contractName": "NewsVerification",
  "abi": [
    {
      "inputs": [
        {
          "internalType": "address",
          "name": "",
          "type": "address"
        },
        {
          "internalType": "uint256",
          "name": "",
          "type": "uint256"
        }
      ],
      "name": "userNewsSources",
      "outputs": [
        {
          "internalType": "string",
          "name": "name",
          "type": "string"
        },
        {
          "internalType": "string",
          "name": "url",
          "type": "string"
        },
        {
          "internalType": "bool",
          "name": "isVerified",
          "type": "bool"
        }
      ],
      "stateMutability": "view",
      "type": "function"
    },
    {
      "inputs": [
        {
          "internalType": "string",
          "name": "_name",
          "type": "string"
        },
        {
          "internalType": "string",
          "name": "_url",
          "type": "string"
        }
      ],
      "name": "addNewsSource",
      "outputs": [],
      "stateMutability": "nonpayable",
      "type": "function"
    },
    {
      "inputs": [
        {
          "internalType": "address",
          "name": "user",
          "type": "address"
        },
        {
          "internalType": "uint256",
          "name": "index",
          "type": "uint256"
        }
      ],
      "name": "verifyNewsSource",
      "outputs": [],
      "stateMutability": "nonpayable",
      "type": "function"
    },
    {
      "inputs": [
        {
          "internalType": "address",
          "name": "user",
          "type": "address"
        },
        {
          "internalType": "uint256",
          "name": "index",
          "type": "uint256"
        }
      ],
      "name": "unverifyNewsSource",
      "outputs": [],
      "stateMutability": "nonpayable",
      "type": "function"
    },
    {
      "inputs": [
        {
          "internalType": "address",
          "name": "user",
          "type": "address"
        },
        {
          "internalType": "uint256",
          "name": "index",
          "type": "uint256"
        }
      ],
      "name": "getNewsSource",
      "outputs": [
        {
          "internalType": "string",
          "name": "",
          "type": "string"
        },
        {
          "internalType": "string",
          "name": "",
          "type": "string"
        },
        {
          "internalType": "bool",
          "name": "",
          "type": "bool"
        }
      ],
      "stateMutability": "view",
      "type": "function"
    }
  ],
  "bytecode": "0x608060405234801561000f575f80fd5b506107eb8061001d5f395ff3fe608060405234801561000f575f80fd5b5060043610610055575f3560e01c8063038838d81461005957806337ac72fa146100845780633e495b9a1461009957806350034a62146100ac5780639f813795146100bf575b5f80fd5b61006c6100673660046104b3565b6100d2565b60405161007b9392919061052b565b60405180910390f35b6100976100923660046104b3565b61026b565b005b6100976100a73660046104b3565b6102bd565b61006c6100ba3660046104b3565b6102e6565b6100976100cd3660046105ff565b610434565b6060805f805f80876001600160a01b03166001600160a01b031681526020019081526020015f20858154811061010a5761010a61065f565b905f5260205f2090600302016040518060600160405290815f8201805461013090610673565b80601f016020809104026020016040519081016040528092919081815260200182805461015c90610673565b80156101a75780601f1061017e576101008083540402835291602001916101a7565b820191905f5260205f20905b81548152906001019060200180831161018a57829003601f168201915b505050505081526020016001820180546101c090610673565b80601f01602080910402602001604051908101604052809291908181526020018280546101ec90610673565b80156102375780601f1061020e57610100808354040283529160200191610237565b820191905f5260205f20905b81548152906001019060200180831161021a57829003601f168201915b50505091835250506002919091015460ff161515602091820152815190820151604090920151909891975095509350505050565b6001600160a01b0382165f908152602081905260409020805460019190839081106102985761029861065f565b5f9182526020909120600390910201600201805460ff19169115159190911790555050565b6001600160a01b0382165f9081526020819052604081208054839081106102985761029861065f565b5f602052815f5260405f2081815481106102fe575f80fd5b905f5260205f2090600302015f9150915050805f01805461031e90610673565b80601f016020809104026020016040519081016040528092919081815260200182805461034a90610673565b80156103955780601f1061036c57610100808354040283529160200191610395565b820191905f5260205f20905b81548152906001019060200180831161037857829003601f168201915b5050505050908060010180546103aa90610673565b80601f01602080910402602001604051908101604052809291908181526020018280546103d690610673565b80156104215780601f106103f857610100808354040283529160200191610421565b820191905f5260205f20905b81548152906001019060200180831161040457829003601f168201915b5050506002909301549192505060ff1683565b335f908152602081815260408083208151606081018352868152808401869052918201849052805460018101825590845291909220825160039092020190819061047e90826106f9565b506020820151600182019061049390826106f9565b50604091909101516002909101805460ff19169115159190911790555050565b5f80604083850312156104c4575f80fd5b82356001600160a01b03811681146104da575f80fd5b946020939093013593505050565b5f81518084525f5b8181101561050c576020818501810151868301820152016104f0565b505f602082860101526020601f19601f83011685010191505092915050565b606081525f61053d60608301866104e8565b828103602084015261054f81866104e8565b9150508215156040830152949350505050565b634e487b7160e01b5f52604160045260245ffd5b5f82601f830112610585575f80fd5b813567ffffffffffffffff808211156105a0576105a0610562565b604051601f8301601f19908116603f011681019082821181831017156105c8576105c8610562565b816040528381528660208588010111156105e0575f80fd5b836020870160208301375f602085830101528094505050505092915050565b5f8060408385031215610610575f80fd5b823567ffffffffffffffff80821115610627575f80fd5b61063386838701610576565b93506020850135915080821115610648575f80fd5b5061065585828601610576565b9150509250929050565b634e487b7160e01b5f52603260045260245ffd5b600181811c9082168061068757607f821691505b6020821081036106a557634e487b7160e01b5f52602260045260245ffd5b50919050565b601f8211156106f4575f81815260208120601f850160051c810160208610156106d15750805b601f850160051c820191505b818110156106f0578281556001016106dd565b5050505b505050565b815167ffffffffffffffff81111561071357610713610562565b610727816107218454610673565b846106ab565b602080601f83116001811461075a575f84156107435750858301515b5f19600386901b1c1916600185901b1785556106f0565b5f85815260208120601f198616915b8281101561078857888601518255948401946001909101908401610769565b50858210156107a557878501515f19600388901b60f8161c191681555b5050505050600190811b0190555056fea26469706673582212205ec2851fb80b79880a03038e3dbf2e58e2df6b3be86a83d3d873ba339c72e9ae64736f6c63430008150033",
  "immutableReferences": {},
  "source": "// SPDX-License-Identifier: MIT\r\npragma solidity ^0.8.0;\r\n\r\ncontract NewsVerification {\r\n\r\n    struct NewsSource {\r\n        string name;\r\n        string url;\r\n        bool isVerified;\r\n    }\r\n\r\n    mapping(address => NewsSource[]) public userNewsSources;\r\n\r\n    // Add a news source for the sender (user)\r\n    function addNewsSource(string memory _name, string memory _url) public {\r\n        userNewsSources[msg.sender].push(NewsSource({\r\n            name: _name,\r\n            url: _url,\r\n            isVerified: false\r\n        }));\r\n    }\r\n\r\n    // Verify a specific news source by user address and index\r\n    function verifyNewsSource(address user, uint index) public {\r\n        userNewsSources[user][index].isVerified = true;\r\n    }\r\n\r\n    // Unverify a specific news source by user address and index\r\n    function unverifyNewsSource(address user, uint index) public {\r\n        userNewsSources[user][index].isVerified = false;\r\n    }\r\n\r\n    // Retrieve news source details for a user\r\n    function getNewsSource(address user, uint index) public view returns (string memory, string memory, bool) {\r\n        NewsSource memory news = userNewsSources[user][index];\r\n        return (news.name, news.url, news.isVerified);\r\n    }\r\n}\r\n",
  "sourcePath": "C:\\Users\\bolla\\blockchain_news_verification\\contracts\\newsveification.sol",
  "compiler": {
    "name": "solc",
    "version": "0.8.21+commit.d9974bed.Emscripten.clang"
  },
  "schemaVersion": "3.4.16",
  "updatedAt": "2025-02-21T11:01:09.365Z",
  "devdoc": {
    "kind": "dev",
    "methods": {},
    "version": 1
  },
  "userdoc": {
    "kind": "user",
    "methods": {},
    "version": 1
  }
}